:020000040800F2
:1000000018530024A5030008415B00080B4A0008B0
:10001000A1570008510600084979000800000000B7
:10002000000000000000000000000000E5020008E1
:100030008D07000800000000410300080566000865
:10004000C3030008C3030008C3030008C303000878
:10005000C3030008C3030008C3030008C303000868
:10006000C3030008C3030008C3030008C303000858
:10007000C3030008C3030008C3030008C303000848
:10008000C3030008C3030008C3030008B507000842
:10009000C3030008C3030008C30300088F07000858
:1000A000C30300088D670008C3030008C3030008EA
:1000B000C3030008C3030008C3030008C303000808
:1000C000C3030008C3030008C3030008C3030008F8
:1000D000C3030008C3030008C3030008C3030008E8
:1000E000C3030008C303000800000000C3030008A6
:1000F000C3030008C3030008C3030008C3030008C8
:10010000C3030008C3030008C3030008C3030008B7
:10011000C30300088D6C000899670008C30300083A
:10012000C3030008C3030008C3030008C303000897
:10013000C3030008C3030008C3030008C303000887
:1001400000000000000000000000000000000000AF
:10015000C3030008C3030008C3030008C303000867
:10016000C3030008C3030008C3030008C303000857
:10017000C3030008C3030008C30300080000000015
:10018000C3030008C3030008C3030008C303000837
:10019000C3030008C3030008C3030008C303000827
:1001A000C3030008C3030008C303000800000000E5
:1001B000C3030008C3030008C3030008C303000807
:1001C000C3030008C3030008000000000000000093
:1001D0000000000000000000C30300080000000051
:1001E000000000000000000000000000000000000F
:1001F0000000000000000000C3030008C303000863
:10020000C3030008C303000800000000C303000884
:10021000C3030008C3030008C3030008C3030008A6
:10022000C303000800000000C30300080000000032
:10023000C3030008C303000800000000C303000854
:10024000C3030008C3030008C3030008C303000876
:10025000C3030008C3030008C3030008C303000866
:10026000C3030008C3030008C3030008C303000856
:10027000C3030008C3030008C30300080000000014
:10028000C3030008C3030008C3030008C303000836
:1002900000000000C3030008C303000800000000C2
:1002A00000000000C3030008C3030008C3030008E4
:1002B000C3030008C3030008C3030008C303000806
:1002C000C3030008C3030008C3030008DFF810D00D
:1002D00000F0F2F80048004775800008AFF3008096
:1002E000185300242C4B19680868B0E8F04F80F3CD
:1002F0000988BFF36F8F4FF0000080F311887047BB
:100300000000000008480068006880F308884FF08B
:10031000000080F3148862B661B6BFF34F8FBFF35D
:100320006F8F00DF00BF00BF08ED00E0DFF80C00BA
:10033000016841F470010160704700BF88ED00E082
:10034000EFF30980BFF36F8F134B1A681EF0100F85
:1003500008BF20ED108A20E9F04F106009B44FF07B
:10036000500080F31188BFF34F8FBFF36F8F09F0F8
:100370006DF84FF0000080F3118809BC1968086817
:10038000B0E8F04F1EF0100F08BFB0EC108A80F3F9
:100390000988BFF36F8F7047F0000024EFF30580EA
:1003A00070470000074880470748804707480047D4
:1003B000FEE7FEE7FEE7FEE7FEE7FEE7FEE7FEE715
:1003C000FEE7FEE799070008B5660008CD020008C1
:1003D0002DE9F05F0546002092469B46884606467A
:1003E000814640241BE0284641464746224600F00D
:1003F00053F853465A46C01A914110D31146184635
:10040000224600F03AF82D1A67EB01084F462246C3
:100410000120002100F031F817EB00094E41201EA9
:10042000A4F10104DFDC484631462A464346BDE8D4
:10043000F09F40EA01039B0703D009E008C9121F9F
:1004400008C0042AFAD203E011F8013B00F8013B8E
:10045000521EF9D27047D2B201E000F8012B491EBA
:10046000FBD270470022F6E710B513460A46044651
:100470001946FFF7F0FF204610BD202A04DB203A82
:1004800000FA02F1002070479140C2F1200320FAE7
:1004900003F3194390407047202A04DB203A21FAE5
:1004A00002F00021704721FA02F3D040C2F120028D
:1004B0009140084319467047064C074D06E0E06836
:1004C00040F0010394E8070098471034AC42F6D39B
:1004D000FFF700FFACF80008CCF8000870B58C18E6
:1004E00010F8015B15F0070301D110F8013B2A1148
:1004F00006D110F8012B03E010F8016B01F8016B35
:100500005B1EF9D12B0705D40023521E0DD401F830
:10051000013BFAE710F8013BCB1A921C03E013F8F9
:10052000015B01F8015B521EF9D5A142D8D300202E
:1005300070BD00002DE9F8438046401EC4B200257E
:10054000C82007F01BFE1E4804EB8402012100EBCB
:1005500082046172404607F0E9FA002640F64857E7
:1005600015E0404607F0A2FA0A2007F007FE6D1CCE
:10057000ADB2BD420BD3607C0090237CE27B11A026
:10058000414607F0F7FA404607F06EFA14E0607A49
:100590000128E6D0607A0228607C0090237CE27B10
:1005A000414606D013A007F0E5FA66720120BDE8C7
:1005B000F8831BA007F0DEFA66720020F7E7000060
:1005C000E00100244D6F746F7220256420686F6D08
:1005D000696E672054494D454F55542C206462671D
:1005E0003D5B253032582025303258202530325896
:1005F0005D0D0A004D6F746F7220256420686F6D69
:10060000696E67204F4B2C206462673D5B2530325A
:1006100058202530325820253032585D0D0A000010
:100620004D6F746F7220256420686F6D696E67204E
:100630004641494C2C206462673D5B25303258208E
:100640002530325820253032585D0D0A0000000058
:10065000FEE700009FED071A20EE010A60EE810A16
:1006600030EE201A30EEC00A80ED001A81ED000A4B
:10067000704700000000F04310B58CB00023082440
:100680001A460093CDE90130CDE90434DFED240AA8
:10069000039340F6FF7008930793069309930A9318
:1006A00011B1012913D02BE010EE101A1D4B994205
:1006B00026D210EE101A1C4A914201DB02461FE0BE
:1006C000FBEE021A9FED191A70EE611A0FE010EEA0
:1006D000101A174B994213D210EE101A154A914274
:1006E000ECDAF1EE041AB2EE041A70EE211A81EE81
:1006F000810A20EE200ABCEEC00A10EE100A82B277
:100700009DF80600C2F3032108438DF806000A484D
:1007100002A98DF807206A4600F008FD0CB010BD54
:1007200000F07F45000090C10000904100001042A1
:100730000000A0C00000A0402802002400B58BB03B
:100740000022FF2108230492CDE900020592FC203B
:100750008DF828108DF824108DF82910CDE902238A
:100760008DF825108DF82A108DF826108DF82B00A5
:10077000054806920792089209AA8DF82710694643
:1007800000F0D4FC0BB000BD2802002470472020EC
:1007900001F008BB72B6FEE7054805490839026852
:1007A00042F00202026008688004FCD57047000035
:1007B0000C480258014800F04DBE000028020024F9
:1007C000F0B503684FF6FC716D4C426BD3F8845062
:1007D0008D4345EA8205C3F88450036853F8845F6B
:1007E000068F25F47F0545EA06451D60836B654D40
:1007F0009F180268D2F888308B4343EA8703C2F817
:100800008830026852F8883F868F23F4FE0343EA5B
:1008100006431360066856F8A03FC26B8B4307EB94
:10082000420243EA82033360076857F8A03FB0F8FA
:10083000406023F4FE0343EA06433B60D0E91036F0
:1008400003FB06220368D3F8B0608E4346EA8206B3
:10085000C3F8B0600368B0F84860D3F8B07027F40C
:10086000FE0747EA0646C3F8B060D0E9126703689E
:1008700006FB0722D3F8AC608E4346EA8206C3F833
:10088000AC60D0E91467036806FB0722D3F8F06078
:100890008E4346EA8206C3F8F0600368B0F85860F9
:1008A000D3F8F07027F47C1747EA0646C3F8F060E7
:1008B0000368876D53F8C06F02EB47028E4346EA28
:1008C000820119600168B0F85C20D1F8C03023F4CF
:1008D0007C1343EA0242C1F8C020016890F860200E
:1008E000D1F8C03023F07C5343EA0262C1F8C02043
:1008F000416B04EB8101C166826B01EB82020267EE
:10090000C36B02EBC3024267D0E91034634302EBCE
:1009100083028267D0E91234634302EB8302C26729
:10092000D0E91434634302EB8302C0F88020836D66
:1009300002EBC303C0F88430C46D826E544303EBF2
:100940008403C0F88830046E544303EB8402C0F87B
:100950009020AA420AD9D0F89C20032142F020021C
:10096000C0F89C2080F898100120F0BD002200E023
:1009700004C1D0F890308B42FAD80020F0BD0000BE
:1009800000AC0040FCD30040F0B58E680C69D1E9A2
:10099000005744EA0604DFB145F080452C43866EDB
:1009A000D1E906C54F695E4391F8203045EA0C0550
:1009B000B1F80CC0D0F884E0002047EA0363104F80
:1009C0001D430EEB860345EA0C45E3E8024511E0C2
:1009D00044EA8544E3E71418155CA67894F803C04C
:1009E00094F801E0360445EA0C6446EA0E252C43EF
:1009F000001D10C3CC683C5D8442ECD8F0BD000003
:100A00009CF70008C90710B50BD006498424CB68B1
:100A100044EA002423F4E660C860C8681043204319
:100A2000C86010BD00200052C9070BD00649CA6833
:100A300022F03002CA60CA680243CA60C86840F047
:100A40008800C86070470000002000522DE9F04780
:100A5000042789460024054601F0CCFA164E80464C
:100A600008E0681C06D001F0C5FAA0EB0800A84217
:100A700008D83DB1306937EA0000F2D0B9F1010F72
:100A800003D005E00320BDE8F0870C48346904403A
:100A9000600006D00A4881692143816174610120A8
:100AA000F1E7B9F1010F05D13069C00302D54FF468
:100AB000803070610020E6E7002000520000EE1751
:100AC0005C05002410EE100A0949DFED0A0A88428D
:100AD00002DDB0EE600A704710EE100A0649884247
:100AE00002D99FED060A70479FED050A7047000086
:100AF0000AD7233CCDCC4C3D0AD723BCCDCC4CBD32
:100B0000000000002DE9F84F044601F073FA009050
:100B10003CB194F83500022806D0802161650020A0
:100B2000E4E00120BDE8F88FC74DC74EC64918352F
:100B300020683036DFF81483DFF814938842DFF83A
:100B400014A3DFF814B328D0A84226D0B04224D092
:100B5000404522D0484520D050451ED058451CD095
:100B6000BD4A1832904218D0BC4A904215D0BB4AB8
:100B70001832904211D0B94A303290420DD0B74A63
:100B80004832904209D0B54A6032904205D0B34A0B
:100B90007832904201D0B14A9032026822F00102CC
:100BA0000260206888422ED0A8422CD0B0422AD0C1
:100BB000404528D0484526D0504524D0584522D01D
:100BC000A54A183290421ED0A44A90421BD0A34A94
:100BD0001832904217D0A14A3032904213D09F4A27
:100BE000483290420FD09D4A603290420BD09B4ACF
:100BF0007832904207D0994A9032904203D0974A77
:100C0000A832904209D1026822F01E0202602068D8
:100C1000426922F08002426103E0026822F00E0283
:100C200002602768884938468F424DD0A8424BD091
:100C3000B04249D0404547D0484545D0504543D0C3
:100C4000584541D08449183188423DD08349884273
:100C50003AD082491831884236D0804930318842B2
:100C600032D07E49483188422ED07C49603188425A
:100C70002AD07A497831884226D078499031884202
:100C800022D07649A83188421ED0754988421BD0AF
:100C900073491431884217D071492831884213D0E2
:100CA0006F493C3188420FD06D49503188420BD09A
:100CB0006B496431884207D069497831884203D052
:100CC00067498C318F4214D1206E016821F4807104
:100CD00001600EE001F08EF90099401A052808D94C
:100CE000202262650321002084F8351084F8340046
:100CF00017E73868C007EDD1534A012120689042B8
:100D00002ED0A8422CD0B0422AD0404528D0484509
:100D100026D0504524D0584522D04F4B1833984206
:100D20001ED04E4B98421BD04C4B1833984217D0D4
:100D30004A4B3033984213D0484B483398420FD037
:100D4000464B603398420BD0444B7833984207D0DF
:100D5000424B9033984203D0404BA833984208D17D
:100D600094F85C703F23A06D07F01F07BB408360C1
:100D700007E094F85C30A06D03F01F0301FA03F361
:100D80004360206890424DD0A8424BD0B04249D039
:100D9000404547D0484545D0504543D0584541D0BF
:100DA0002D4A183290423DD02C4A90423AD02B4ADC
:100DB0001832904236D0294A3032904232D0274AF7
:100DC000483290422ED0254A603290422AD0234A9F
:100DD0007832904226D0214A9032904222D01F4A47
:100DE000A83290421ED01E4A90421BD01C4A143298
:100DF000904217D01A4A2832904213D0184A3C32F7
:100E000090420FD0164A503290420BD0144A6432AE
:100E1000904207D0124A7832904203D0104A8C3266
:100E200090420BD1D4E919024260E06E30B1026801
:100E300022F480720260D4E91C024260002084F82F
:100E4000351084F834006DE610000240580002406E
:100E50007000024088000240A000024010040240DE
:100E6000085402582DE9F05F28B190F83510022996
:100E700004D0802141650120BDE8F09F764A764B81
:100E8000DFF8D4C1183201683033744CDFF8D0B1C8
:100E90006145744D744E754FDFF8D4E1DFF8D4A18D
:100EA000DFF8D49131D091422FD099422DD0A14278
:100EB0002BD0594529D0A94227D0B14225D0B942DB
:100EC00023D0DFF8AC81A8F1780841451DD0DFF8C8
:100ED000A081A8F16008414517D0DFF89481A8F1FE
:100EE0004808414511D0DFF88881A8F13008414514
:100EF0000BD0DFF87C81A8F11808414505D0714579
:100F000003D0514501D049452AD14FF0040880F85B
:100F1000358061451FD091421DD099421BD0A1421E
:100F200019D0594517D0A94215D0B14213D0B942B2
:100F300011D04F48783881420DD04D4860388142F9
:100F400009D04B484838814205D049483038814261
:100F500001D047481838086820F00100086078E0A0
:100F6000D1F8008028F00108C1F800800168D1F8AC
:100F7000008028F00E08C1F800800168614546D065
:100F8000914244D0994242D0A14240D059453ED0EE
:100F9000A9423CD0B1423AD0B94238D0344A783A2A
:100FA000914234D0324A603A914230D0304A483A85
:100FB00091422CD02E4A303A914228D02C4A183AED
:100FC000914224D0714522D0514520D049451ED0B0
:100FD0002A4A91421BD0294A1432914217D0274AFB
:100FE0002832914213D0254A3C3291420FD0234AF5
:100FF000503291420BD0214A6432914207D01F4AAD
:101000007832914203D01D4A8C32914218D1026E3F
:101010000121136823F48073136090F85C30826DB3
:1010200003F01F0399405160D0E919124A60C16E64
:1010300031B10A6822F480720A60D0E91C124A6059
:101040000122016D002380F8352080F8343001B191
:101050008847002010E700001000024058000240BE
:101060007000024088000240A0000240B800024028
:1010700088040240A0040240B80402400854025808
:1010800070B5044600F0B6FF0546601C02D0044867
:101090000078044400F0AEFF401BA042FAD370BDBC
:1010A000DC00002410B590F89830012B09D0022BF9
:1010B00007D0D0F89C1041F00201C0F89C1001202C
:1010C00010BD03689C6D0C4203D1DC6D44F001043B
:1010D00004E09C6D31EA04041FD00324DC658B0519
:1010E00005D50368D3F8E0401443C3F8E0404B054E
:1010F00005D50368D3F8E4401443C3F8E44000681E
:10110000084A01EA0203446D074A1C43446510681B
:1011100040EA91701060002010BDDC6D44F00204C4
:10112000DCE70000FFFFCF3F14A8004070B5044685
:1011300090F89800022804D0D4F89C0040F00800F1
:101140000DE02068D0F8C03013F07C5F0BD0D0F8F1
:10115000C4309B020CD5D4F89C0040F40070C4F855
:101160009C00012070BDD4F89C0040F02000F6E700
:10117000D0F8C400C0F3044520462B46FFF704FC1A
:1011800021680120A840C1F8D000C4F894000020D4
:1011900070BD704790F89830012B07D0D0F89C10A4
:1011A00041F00401C0F89C100120704761B1006853
:1011B000012913D0D0F8B01021F0FE4141EA0261BC
:1011C000C0F8B010002070470068D0F8F01021F08F
:1011D0007C5141EA0261C0F8F010F3E7D0F8A010AA
:1011E00021F0FE4141EA0261C0F8A010EAE770B5C3
:1011F00090F89820012A09D0022A07D0D0F89C1034
:1012000041F00201C0F89C10012070BD0B68CA6853
:1012100083B10B69072A43EA427325D00C7A4A69E5
:1012200042EA84724968006F00EBC100C0E90032F5
:10123000002070BD072A0DD00C7AD6060D8A4B69A6
:1012400043EA847246EA0543C06E49681A4340F88F
:101250002120EDE70B8A4FF06055D1E9062442EAE0
:10126000034245EA0423EFE78A69DBE730B590F8EB
:101270009850039C012D07D0D0F89C1041F0040138
:10128000C0F89C10012030BD0D01016845EA8200C4
:1012900040EA43002043C1F88000002030BD704781
:1012A000890104D50068816921F0010181617047DD
:1012B000F0B590F898500024022D04D0D0F89C107E
:1012C00041F0080130E0402905D0412930D0056DBA
:1012D0008D4220D94DE00568D5F8A04014F4FE0FEA
:1012E00019D0D5F8A44064061AD0D5F8A440D5F892
:1012F000A460C4F30524F6010AD5D5F8A06016F061
:10130000004F05D5D5F8A050641CC5F306452C4008
:10131000466F456C2BE0D0F89C1041F0200103E0B3
:10132000D0F89C1041F48071C0F89C100120F0BDF1
:101330000568D5F8B04014F4FE0FECD0D5F8B440F1
:101340006406EDD0D5F8B440D5F8B460C4F30524F4
:10135000F6010AD5D5F8B06016F0004F05D5D5F8DE
:10136000B050641CC5F306452C40866FC56C6543C0
:1013700002E0456DC66F4D4306EB85052E6816F0FD
:10138000804656602E6836D026F060461660D5F846
:1013900000C000262D4F0CF0005CC2F808C0D5F844
:1013A00000C00CF0004CC2F810C0B5F804C01FFA21
:1013B0008CFCC2F81CC0D5F804C0CCF3034CC2F8B6
:1013C0000CC0D5F804C00CF4801CC2F814C0D5F8C9
:1013D00004C00CF4001CC2F818C0D5F804C0CCF34B
:1013E000066CC2F820C0D5F804C008354FEADC7C92
:1013F000C2F824C007E0C6F38A46C7E715F806C05E
:1014000003F806C0761CD2F80CC017F80CC0B4451F
:10141000F4D840290AD041290CD020294FF00102EC
:101420000CD200688A40C0F898200DE00068C0F82F
:10143000A84009E00068C0F8B84005E0006801F085
:101440001F018A40C0F89C200020F0BD9CF70008D6
:10145000704700002DE9FF5FDFF80CB304460BF185
:101460000401DBF8000025680F68AA468007D5F85C
:101470005090696DD5F850806E6D2A6DD5F854C0C6
:101480002B6D00EA8770009009F470496F6D286D2C
:1014900001EA09010191DAF85410DAF85490DAF807
:1014A000505008F00F0806EA0806029602F0F00213
:1014B00003F071536FEA09061F4000F060700CEAF8
:1014C000020CCDF80CC0F20501EA00090CD4E84387
:1014D000C00509D400214FF48073CAF85030CBF80E
:1014E00000102046FFF7B4FF700512D4E843400512
:1014F0000FD4206800234FF48068D0F8DC20D0F8A7
:10150000E410C0F85080CBF800301140204600F0C5
:1015100051FBDFF858A2009850B12268830F00EA0F
:101520000A001065CBF8003020460099FFF731FE25
:10153000019850B12268830F00EA0A001065CBF8C9
:1015400000302046019900F037FB029850B1226824
:10155000830F00EA0A001065CBF80030204602999C
:1015600000F078FA039850B12268830F00EA0A006D
:101570001065CBF800302046039900F0FBFA3005E7
:101580000CD4E843000509D4236800204FF400621E
:101590001A65CBF80000204600F00FFBB00512D40E
:1015A000E84380050FD4206800234FF40078D0F87A
:1015B000D820D0F8E010C0F85080CBF800301140AF
:1015C000204600F0F8FA30030CD4E843000309D4B5
:1015D000236800204FF400221A65CBF80000204653
:1015E00000F036FAF0030CD4E843C00309D42368B2
:1015F00000204FF480321A65CBF80000204600F03E
:10160000D8FA70030CD4E843400309D422680020C0
:101610004FF480231365CBF80000204600F0C8FA91
:10162000B0030FD4E84380030CD4236800204FF4A8
:1016300000321A65CBF80000D4F89C0040F080001E
:10164000C4F89C00B9F1000F0BD022684FEA9973DF
:1016500009EA0A001065CBF8003049462046FFF73A
:101660001FFE5FB12268BB0F07EA0A001065CBF8C6
:101670000030D4F89C003843C4F89C003C492068F2
:10168000884268D1606881468068800763D0D9F855
:101690002060D9F82410D9F82080D9F82400D9F88E
:1016A00020C0D9F82470D9F82030D9F82450D9F8BE
:1016B000202003F4FC4306F00F0AD9F824601D40F3
:1016C000D9F824B008F030080CF4C07C02F4F02201
:1016D00011EA0A0100EA080807EA0C0706EA02060E
:1016E000D9F820A004D0C9F82010204600F05DFAF7
:1016F000B8F1000005D0616808624146204600F05C
:1017000056FA6FEA0B0040060ED46FEA0A00400654
:101710000AD460684021C36BC26B01622046190C79
:1017200002F03F0200F042FA2FB1606807623946CA
:10173000204600F039FA35B160680562D4F89C00A3
:101740002843C4F89C0036B160680662D4F89C0057
:101750003043C4F89C00D4F89C00002802D02046F6
:10176000FFF79DFDBDE8FF9F10A80040FFFFCF3FA2
:1017700000A000402DE9F04194B08D494C22044670
:101780006846FEF756FE64B18A4D2068A84202D131
:1017900000F58070606094F898004FF0000820B168
:1017A00008E0012014B0BDE8F081204684F899805B
:1017B00000F002F92068816921F01001816100F0D8
:1017C00019FC0327064604E000F014FC801B0A28DD
:1017D00011D8206880690007F6D42068816941F03B
:1017E0000101816100F006FC06460DE000F002FCFC
:1017F000801B0A2808D9D4F89C0040F00100C4F8E6
:101800009C0084F89870CCE720688069C007EDD010
:101810002068816941F002018161207C01282068F3
:10182000816937D041F040018161607C01282068E6
:10183000816932D021F480418161A07C0128206837
:1018400081692DD041F4805181612068A26881694D
:1018500021F44071114381612068816921F0A40164
:1018600081612068016921F010010161E0680128AF
:1018700019D010B302281BD02068816941F0800183
:1018800081612068016941F010010161E06803286D
:101890000ED012E021F04001C6E741F48041CBE7D1
:1018A00021F48051D0E72068816941F0040103E010
:1018B0002068816941F020018161207E6FF0FF0284
:1018C000D4E90773A68A1102400602EB0727A0F1AC
:1018D0000070384327685B1E184301EB064630430F
:1018E000F861A068B0F5407F11D104F12800A68C02
:1018F0006FF00F0C89C801EB0641401E02EB03227A
:10190000104322680CEB071318430843D060206E85
:1019100030B12068626ED0F8C0101143C0F8C0101A
:10192000D4E917126846D14209D02168A36E51F854
:10193000C82F50F8233022F007021A430A60216CA6
:1019400049B12168626C51F8BC3F50F8226023F025
:10195000070232430A60A16C51B12168E36C51F86F
:10196000BC2F50F8233022F0700242EA03120A60C2
:10197000216D51B12168626D51F8BC3F50F82200D1
:1019800023F4E06242EA002008602068A84204D103
:101990006068816821F003018160C4F894800121AE
:1019A000C4F89C8084F898102046FEF709FFF9E6F9
:1019B000ACF7000800A0004010B5B4B004461421F4
:1019C0002EA8FEF74FFDB8216846FEF74BFD1D49D6
:1019D0002068884234D100204FF40041CDE9001046
:1019E0004A0368461B9200F055FD08B1FEF7D2FE8F
:1019F0001548016841F480710160006800F480704E
:101A0000339011480C38016841F00801016000680A
:101A10000923032100F00800339000202E910222B8
:101A20002EA9CDE92F20CDE93103084800F0C6F9F1
:101A300000220621132000F07BFB132000F06AFB3C
:101A400034B010BD00A00040EC440258000C025815
:101A50007047000010B5C9078CB02CD040216B46F0
:101A600002AAFFF725FC002825D1039828B3B0F17E
:101A7000804F20D10298C0F30721481E02281AD2B5
:101A8000C0B2364A00EB800302EB830002F8231059
:101A90008189491C81819DF80020C2739DF8011045
:101AA00001743B2A9DF8023043743CD0362A43D05F
:101AB000EE2900D182730CB010BD029840F20123D0
:101AC000591C40F2777258B1984211D12449BDF89F
:101AD00000305BBA0B80BDF802305BBA4B8013E07C
:101AE000204800231A466946006806F007FCE2E732
:101AF000884209D11C48BDF8001049BA0180BDF8E0
:101B0000021049BA4180D6E79042D4D19DF8000036
:101B1000022806D00328CED114490888401C08802A
:101B2000C9E71349F9E74A07C5D4090701D50221D6
:101B300000E000214172BEE7BDF80310012B9DF8C3
:101B400005409DF8062049BA4FEA014141EA0421C7
:101B500041EA020100D149424160ACE7E0010024C2
:101B60009A000024C40000249E000024CE0000241B
:101B7000CC000024704790F89810012907D0D0F8C5
:101B80009C1041F00401C0F89C1001207047022114
:101B900080F89810002201688B6923F001038B61A3
:101BA000C0F89C20104670477047704770477047D8
:101BB0007047704770477047704770472DE9F05F76
:101BC00004462D480F460026017D012911D001222F
:101BD00002758046B146C0F818904CF2503A207910
:101BE000C00709D001215046FEF730FF20B1012681
:101BF0003DE00220BDE8F09F2068204D012807D07D
:101C00004FF0FF303860AA46A56840F2047B29E017
:101C100061682069FEF708FF2079C00727D00121FD
:101C20005046FEF713FF00B10126E86820F00800D7
:101C3000E8601CE0226928466168FEF7E3FE20792F
:101C4000C0070ED001214CF25030FEF7FFFEDAF84B
:101C50000C20060022EA0B02CAF80C2001D03D60DD
:101C600005E06D1CD4E902100844A842E2D83046D1
:101C700088F81490BEE700005C05002400200052A4
:101C80000548C16841F00101C160C068C00701D0CA
:101C90000020704701207047002000522DE9F05FBE
:101CA000214D08260F461446287D012813D0012017
:101CB0002875A7F10061B1F5801F0FD24FF0000920
:101CC0008246C5F818904CF2503B51465846FEF7F4
:101CD000BDFE28B124E00220BDE8F09F0120FBE713
:101CE000DFF84880D8F80C1041F00201C8F80C1059
:101CF000BFF36F8FBFF34F8F01CC761E16F0FF0638
:101D000001C7F9D1BFF36F8FBFF34F8F51465846CC
:101D1000FEF79CFED8F80C2022F00202C8F80C2036
:101D200085F81490D8E700005C05002400200052DC
:101D30000748C168C90708D00649074A41604260A0
:101D4000C068C00701D00120704700207047000024
:101D50000020005223016745AB89EFCD00B5202854
:101D60008BB019D10D48202100F03AF9002813D189
:101D7000012240F27771CDE90010CC238DF8243098
:101D8000CDE90202049009AA0590694606900790E1
:101D900008900348FFF7CAF90BB000BD00000258D5
:101DA000280200244FF0B04110B5D1F8882002423B
:101DB00003D0C1F88800FFF7D1FF10BD2DE9F84F1F
:101DC00003247C4D00234FF001094FF0B04B4FF03E
:101DD0000F0AE7E009FA03F632407BD00F7907F0EB
:101DE0000307012F01D0022F1AD187684FEA430E53
:101DF000D1F80CC004FA0EF827EA08070CFA0EFC1A
:101E00004CEA070CC0F808C0476891F804C0B74313
:101E1000CCF3001C0CFA03FC4CEA070CC0F804C01D
:101E20000E79F643B60702D18E68012E0BD0C76833
:101E30004FEA43088E6804FA08FC27EA0C0706FA02
:101E400008F63E43C6600E7906F00306022E12D154
:101E5000DE080F694FEA437C00EB8606B646366A19
:101E60004FEADC6C0AFA0CF807FA0CF726EA0806C7
:101E70003743CEF820700F7906684FEA430807F021
:101E8000030704FA08FC07FA08F726EA0C063743AA
:101E900007604E6816F4403F1CD0474E376847F045
:101EA0000207376036689F0706F00206009623F0A7
:101EB000030606F1B046B6463F0FD6F80864DFF8D1
:101EC000FC800AFA07FC404526EA0C0603D14FF0D5
:101ED000000C3AE065E0DFF8E8C0604502D14FF061
:101EE000010C32E0DFF8DCC0604502D14FF0020C9B
:101EF0002BE0DFF8D4C0604502D14FF0030C24E0A2
:101F0000DFF8C8C0604502D14FF0040C1DE0DFF8D7
:101F1000C0C0604502D14FF0050C16E0DFF8B4C038
:101F2000604502D14FF0060C0FE0DFF8ACC0604511
:101F300002D14FF0070C08E0DFF8A0C0604502D1E5
:101F40004FF0090C01E04FF00A0C0CFA07FC4CEAC8
:101F5000060CCEF808C44F68DBF80060FF0226EAE2
:101F6000020600D516435F46CBF80060D1F804C0E6
:101F7000DBF804605FEA8C2C26EA020600D51643E3
:101F80007E606E684F6826EA0206BF0300D51643DE
:101F90006E602E684F6826EA0206FF0300D51643DE
:101FA0002E605B1C0A6832FA03F67FF413AFBDE8BB
:101FB000F88F000080000058F444025800000258D6
:101FC0000004025800080258000C02580010025881
:101FD0000014025800180258001C0258002402582D
:101FE0000069084000D0012070470AB18161704744
:101FF0000904FBE70148806870470000DC0000240A
:10200000024881680278114481607047DC00002436
:10201000032010B500F0ACF801F084F80F4A104925
:1020200014681368C4F3032203F00F038A5CC95CCD
:1020300002F01F0201F01F01D0400A4A20FA01F10C
:102040001160094908600F2000F010F808B1012064
:1020500010BD00F04DF8002010BD000018440258DB
:1020600020F80008EC000024E800002410B5102837
:1020700004468AB02AD200220146192000F058F8FE
:10208000192000F047F8154804601548016841F030
:1020900001010160006808A900F00100099068468C
:1020A00000F0CCFF01F02CF80E49400000220E4C4D
:1020B000B0FBF1F10D4840F2E7330460C0E90332B0
:1020C000491EC0E9011201F001FE10B101200AB061
:1020D00010BD064801F056FEF9E70000E0000024BC
:1020E000F044025840420F00000001401005002457
:1020F000074882B0016841F00201016000680022D7
:102100000F2100F002000090901E02B000F010B805
:10211000F4440258002809DB410900F01F0289003D
:10212000012001F1E0219040C1F80001704700005A
:102130000E4BF0B41B680D46C3F30223C3F1070630
:10214000042E00D90426191D072901D2002300E01E
:10215000DB1E012404FA06F19C40491E2940641E3E
:10216000994014402143F0BC05F028BD0CED00E07F
:10217000064900F0070210B54FF6FF040868044B4B
:10218000204040EA02201843086010BD0CED00E03A
:102190000000FA05134970B50A68D243520705D505
:1021A000096801F00701814213D118E00A6822F0A2
:1021B000070202430A60FFF71DFF0A4D4FF47A76CB
:1021C0000446083D07E000BFFFF714FF001BB042C4
:1021D00001D9012070BD2868C0438004F4D40020D8
:1021E00070BD00000C48025810B500F055FF0549BD
:1021F0000968054AC1F30211515C01F01F01C84092
:1022000010BD00002044025820F80008494930B5AC
:10221000484C0B1D0A68143409681D68246802F0D4
:102220000303C5F30012C1F30531C4F3CC04002944
:1022300014FB02F200EE102AF8EE400A75D03F4A75
:102240009FED3D1AB7EE000A6BB1DFED3D1A012B91
:1022500001D0022B64D002EE101A1168F8EE422A67
:1022600081EEA22A21E0334C283C23689B0612D53C
:10227000344B246801EE901A1168C4F3C104F8EEDF
:10228000612AE34001EE903AC1F30801F8EE611AC9
:1022900081EEA22A0BE001EE901ADFED2B2A00BF9F
:1022A000F8EE611A116882EEA12AC1F3080101EE6D
:1022B000901A1168F8EE611A40EE811A71EE800AE8
:1022C00062EE200AC1F3462101EE101AB8EE411A5F
:1022D00031EE001AC0EE811ABCEEE11A80ED001A50
:1022E0001168C1F3064101EE101AB8EE411A31EE41
:1022F000001AC0EE811ABCEEE11A80ED011A1168D5
:10230000C1F3066101EE101AB8EE411A31EE000A6F
:1023100080EE801ABCEEC10A80ED020A30BD04E0F6
:1023200001EE901ADFED092ABAE700210160416051
:102330008160F3E72844025800000039384402580D
:102340000024744A0090D0030024744C001BB74B47
:10235000494930B5484C0B1D0A681C3409681D6892
:10236000246802F00303C5F30022C1F30551C4F34E
:10237000CC04002914FB02F200EE102AF8EE400A09
:1023800075D03F4A9FED3D1AB7EE000A6BB1DFED05
:102390003D1A012B01D0022B64D002EE101A1168F5
:1023A000F8EE422A81EEA22A21E0334C283C236831
:1023B0009B0612D5344B246801EE901A1168C4F3C1
:1023C000C104F8EE612AE34001EE903AC1F308013E
:1023D000F8EE611A81EEA22A0BE001EE901ADFED11
:1023E0002B2A00BFF8EE611A116882EEA12AC1F310
:1023F000080101EE901A1168F8EE611A40EE811A98
:1024000071EE800A62EE200AC1F3462101EE101A35
:10241000B8EE411A31EE001AC0EE811ABCEEE11A94
:1024200080ED001A1168C1F3064101EE101AB8EEF2
:10243000411A31EE001AC0EE811ABCEEE11A80EDAD
:10244000011A1168C1F3066101EE101AB8EE411AC3
:1024500031EE000A80EE801ABCEEC10A80ED020A5D
:1024600030BD04E001EE901ADFED092ABAE7002141
:10247000016041608160F3E72844025800000039A0
:10248000404402580024744A0090D0030024744C45
:10249000001BB74B2DE9FE4F0546DFF800A450F8AE
:1024A000081B0024FD4FC943019005F12800264672
:1024B0000AF1240A009008011DD4686E50B1B0F5ED
:1024C000801F0CD0B0F5001F0ED0B0F5401F1ED0FD
:1024D00001240FE0386840F40030386017E00198BC
:1024E000022103F027FC03E00098022103F0B2FC74
:1024F00004000CD026462888C043C00523D4A86D0C
:1025000005281ED2DFE800F00C11161B1B006A6EB6
:10251000DAF8001021F440111143CAF80010EAE77C
:10252000386840F40030386009E00198002103F079
:1025300001FC03E00098002103F08CFC0446C4B1C8
:1025400000E0012426462888DFF85083C04308F1C4
:102550002C0840052FD4D5F8A400B0F5C00F28D022
:1025600010DCB8B1B0F5001F19D0B0F5800F0FD155
:102570001AE0AA6DDAF8001021F007011143CAF839
:102580000010E0E7B0F5000F13D0B0F5200F10D029
:1025900001240FE0386840F40030386009E0019809
:1025A000002103F0C7FB03E00098002103F052FC78
:1025B000044694B126462888C043000530D4D5F897
:1025C000A800B0F1407F29D011DCC0B1B0F1807F0C
:1025D0001AD0B0F1007F10D11BE0D5F8A420D8F8B4
:1025E000001021F460011143C8F80010E3E7B0F1D6
:1025F000806F13D0B0F1A06F10D001240FE03868C5
:1026000040F40030386009E00198002103F092FBAB
:1026100003E00098002103F01DFC044694B1264617
:102620002868DFF878B2C0430BF1200B80011FD47B
:10263000E86CD8B110280FD0202812D0302815D03F
:10264000012414E0D5F8A820D8F8001021F0E061AA
:102650001143C8F80010E3E7386840F400303860F0
:1026600004E00198022103F065FB044674B126469C
:102670002888C043C0042BD4E86DB0F5005F20D09B
:102680000DDCA0B1B0F5805F0FD115E0EA6CDBF88E
:10269000001021F030011143CBF80010E8E7B0F54D
:1026A000405F13D0B0F5804F10D001240FE03868A0
:1026B00040F40030386009E00198002103F03AFB53
:1026C00003E00098002103F0C5FB04468CB12646C8
:1026D0002888C043800429D4286EB0F5403F23D019
:1026E00010DC08B3B0F5803F14D0B0F5003F0FD137
:1026F00015E0EA6DDAF8001021F4E0411143CAF860
:102700000010E5E7B0F5802F0ED0B0F5A02F0BD06C
:1027100001240AE00198012103F00CFB03E000987A
:10272000012103F097FB044694B126462888C04354
:1027300040042AD4D5F8AC00B0F1405F23D010DCBF
:1027400008B3B0F1805F14D0B0F1005F0FD115E095
:102750002A6EDAF8001021F4E0211143CAF80010C3
:10276000E4E7B0F1804F0ED0B0F1A04F0BD00124C0
:102770000AE00198012103F0DDFA03E0009801214D
:1027800003F068FB044674B126462888C043000461
:102790001FD4E86ED8B1B0F1805F0ED0B0F1005F09
:1027A00010D0012414E0D5F8AC20D8F8001021F0A6
:1027B000E0411143C8F80010E7E7386840F4003002
:1027C000386004E00198012103F0B4FA044674B1C2
:1027D00026462868C043C0011ED4A86CD0B1012889
:1027E0000ED0022811D0032814D0012413E0EA6E81
:1027F000DAF8001021F040511143CAF80010E8E760
:10280000386840F40030386004E00198022103F099
:1028100091FA04466CB126462868C043400255D45C
:102820001F48016841F480710160FFF7E3FB8146B6
:102830000EE0AA6CDBF8001021F003011143CBF885
:102840000010E9E7FFF7D6FBA0EB090064283BD8AE
:1028500013480068C005F5D5BCBBDFF84090B5F85B
:10286000B01009F14409D9F8000001F4407100F4F6
:102870004070884211D0D9F80010D9F8002021F416
:10288000407142F48032C9F80020D9F8002022F4C7
:102890008032C9F80020C9F8001003E02C44025827
:1028A00000480258D5F8B000B0F5807F19D1FFF785
:1028B000A1FB029011E000BFFFF79CFB0299411AB7
:1028C00041F28830814208D9032426462878DFF86F
:1028D0001494C043C00721D03CE0D9F80000800721
:1028E000EAD5D5F8B010C1F301200328FE480DD079
:1028F000016821F47C510160B5F8B020D9F80010CE
:10290000C2F30B021143C9F80010DFE7F74A03686E
:1029100002EA111223F47C511143ECE7A86F182846
:1029200016D005DCA0B1082808D0102804D10AE090
:1029300020280DD028280BD001240AE0019801217D
:1029400003F0F8F903E00098012103F083FA04464C
:1029500064B126462878C04380071ED4686F0628D5
:1029600019D2DFE800F0160C11161616AA6FD9F866
:10297000001021F038011143C9F80010EAE701986E
:10298000012103F0D7F903E00098012103F062FA76
:1029900004467CB100E0012426462878C043400765
:1029A0001FD4D5F89000062819D2DFE800F0160CE5
:1029B000111616166A6FD9F8001021F0070111439D
:1029C000C9F80010E9E70198012103F0B3F903E029
:1029D0000098012103F03EFA0446A4B100E001246E
:1029E00026462878C04380062BD4D5F88C00B0F159
:1029F000405F24D011DC10B3B0F1805F15D0B0F18E
:102A0000005F10D116E0D5F89020D8F8001021F022
:102A100007011143C8F80010E3E7B0F1804F0ED072
:102A2000B0F1A04F0BD001240AE00198002103F07F
:102A300081F903E00098022103F00CFA044694B1F6
:102A400026462878C04340062BD4D5F89800B0F528
:102A5000406F24D011DC10B3B0F5806F15D0B0F505
:102A6000006F10D116E0D5F88C20D9F8001021F0B5
:102A7000E0411143C9F80010E3E7B0F5805F0ED0E4
:102A8000B0F5A05F0BD001240AE00198002103F00B
:102A900051F903E00098022103F0DCF9044694B1F7
:102AA00026462878C04300062BD4D5F89C00B0F504
:102AB000C04F24D011DC10B3B0F5005F15D0B0F5D5
:102AC000804F10D116E0D5F89820D8F8001021F4E6
:102AD000E0511143C8F80010E3E7B0F5004F0ED005
:102AE000B0F5204F0BD001240AE00198002103F03B
:102AF00021F903E00098022103F0ACF9044654B137
:102B000026462878C04300071ED4D5F88000B0F5CB
:102B1000805F0AD00FE0D5F89C20D8F8001021F48F
:102B200060411143C8F80010EBE70098022103F060
:102B300091F900B10126D5F88020D9F8001021F4D0
:102B400040511143C9F800102878C043C00613D47F
:102B5000D5F89400B0F5807F05D10098022103F0EC
:102B600079F900B10126D5F89420D8F8001021F4A5
:102B700040711143C8F800102868C043000316D400
:102B8000D5F8A00038B1B0F5803F09D0B0F5003FCE
:102B90000BD001240AE00198002103F0CBF803E0F8
:102BA0000098022103F056F904468CB126462868A5
:102BB000C043400322D4D5F88400B0F5801F11D063
:102BC000B0F5001F13D0B0F5401F15D0012414E05C
:102BD000D5F8A020D8F8001021F440311143C8F8EE
:102BE0000010E4E7386840F40030386004E00098F2
:102BF000012103F02FF904465CB126462868C04342
:102C0000C0031CD4286D70B1B0F5803F10D00124F2
:102C100014E0D5F88420D9F8001021F440111143B4
:102C2000C9F80010EAE7386840F40030386004E082
:102C30000198022103F07EF80446DCB1264628689C
:102C4000C043800005D40098022103F003F900B1CD
:102C500001262868C04380031BD4E86FB8B1B0F5E3
:102C6000807F10D0B0F5007F11D0B0F5407F0ED03E
:102C700001240DE02A6DDBF8001021F480311143AE
:102C8000CBF80010DBE7386840F4003038607CB3E4
:102C900026462868C043C00207D42A6FDAF800101D
:102CA00021F000411143CAF800102868C043800297
:102CB00007D4AA6EDAF8001021F080711143CAF827
:102CC00000102868C043400009D40748016821F477
:102CD000004101600168D5F8B42011430160286803
:102CE000C04306E05444025810440258CFFFFF008E
:102CF0001DE007D46A6DDBF8001021F0405111434C
:102D0000CBF800102868C043000208D4D5F888200A
:102D1000D9F8001021F440011143C9F800102879B6
:102D20000024C04300F00100204309D00EE0EA6F08
:102D3000D9F8001021F440711143C9F80010A8E738
:102D40000198002102F0F6FF00B106462879C04341
:102D500000F00200204305D10198012102F0EAFFB2
:102D600000B106462879C04300F00400204305D195
:102D70000198022102F0DEFF00B106462879C04327
:102D800000F00800204305D10098002103F062F80C
:102D900000B106462879C04300F01000204305D159
:102DA0000098012103F056F800B106462879C04387
:102DB00000F02000044304D10098022103F04AF8F7
:102DC00000B916B10120BDE8FE8F0020FBE7704777
:102DD0002DE9F05F04000F467ED0DFF83882D8F886
:102DE000000000F00F00B8420CD2D8F8001021F01B
:102DF0000F013943C8F80010D8F8000000F00F00A8
:102E0000B84269D12078844D40070AD520692968E5
:102E100001F07001884204D9296821F07001014352
:102E2000296020787C4E361D00070AD5606931681C
:102E300001F07001884204D9316821F0700101432A
:102E400031602078C0060AD5A069316801F4E061DC
:102E5000884204D9316821F4E0610143316020786F
:102E6000DFF8B4B180060BF1080B0CD5E1695846C8
:102E7000DBF8002002F07002914204D9026822F0CF
:102E800070020A430260207880070AD5E06829684A
:102E900001F00F01884204D9296821F00F01014394
:102EA00029602078C0073ED05B49A268286818399D
:102EB00020F47060104328606068022818D003284E
:102EC00019D00968012819D0490700294ADADFF822
:102ED00048A1AAF1080A00E044E0DAF8002022F054
:102EE00007020243CAF80020FFF784F8814612E087
:102EF00009688903E9E709688901E6E7C905E4E7A4
:102F0000FFF778F8A0EB090141F28830814202D93D
:102F10000320BDE8F09F6168DAF8000000F0380097
:102F2000B0EBC10FECD1207880070AD5E0682968A2
:102F300001F00F01884204D2296821F00F010143FA
:102F40002960D8F80010404601F00F01B9420BD9B2
:102F5000016821F00F0139430160006800F00F00A3
:102F6000B84201D00120D4E7207840070AD5206973
:102F7000296801F07001884204D2296821F07001AB
:102F800001432960207800070AD56069316801F0A3
:102F90007001884204D2316821F070010143316030
:102FA0002078C0060AD5A069316801F4E061884242
:102FB00004D2316821F4E061014331602078800659
:102FC0000CD5E1695846DBF8002002F0700291420E
:102FD00004D2026822F070020A43026000F0A2F8F4
:102FE0000E492A682B68C2F3032203F00F038A5CA0
:102FF000C95C02F01F0201F01F01D040084A20FA0C
:1030000001F111600749086007480068BDE8F05FFA
:10301000FFF72CB8002000521844025820F800088E
:10302000EC000024E8000024E000002402480168CD
:1030300041F40021016070470044025870B5144CFF
:103040003F220260124A24680832131D114D04F019
:103050000704446016681C1D06F4706686601668D6
:1030600006F00F06C660126802F0700202611A686C
:1030700002F0700242611A6802F4E0628261226822
:1030800002F07002C261286800F00F00086070BD95
:10309000104402580020005230B500F043F80B4AAB
:1030A0000B490C4B15681468C5F3032204F00F0498
:1030B0008A5C095D02F01F0201F01F01D040064A40
:1030C00020FA01F119601060084630BD184402581A
:1030D00020F80008EC000024E800002400B5FFF709
:1030E000DBFF05490968054AC1F30211515C01F093
:1030F0001F01C84000BD00001C44025820F8000811
:1031000000B5FFF7C9FF05490968054AC1F3022167
:10311000515C01F01F01C84000BD00001C44025872
:1031200020F80008454970B545480968434B103BF5
:1031300011F0380208D00111082A03D0102A0BD050
:10314000182A0BD0084670BD19688906FBD5196886
:10315000C1F3C101C84070BD3A4870BD3749374D11
:1031600018310C1D24350A68096826682D6802F09C
:10317000030406F00102C1F30511C5F3CC0515FBEC
:1031800002F200EE102AB8EE400AE9B32F4ADFED52
:103190002E0AB7EE001A6CB1DFED2D1A012C01D00A
:1031A000022C43D002EE101A1068F8EE422A81EE8B
:1031B000A22A1EE01C68A40611D51B6801EE901A15
:1031C0001168C3F3C103F8EE612AD84001EE900AFA
:1031D000C1F30800F8EE611A81EEA22A0BE001EEBD
:1031E000901ADFED1C2A00BFF8EE611A106882EE1B
:1031F000A12AC0F3080001EE900AF8EE611A40EE31
:10320000201A31EE810A00E015E022EE000A106873
:10321000C0F34620401C00EE900AF8EE600A80EEF3
:10322000201ABCEEC10A10EE100A70BD01EE901A11
:10323000DFED092AD8E7002070BD000010440258D5
:103240000090D00300366E0100000039304402586F
:103250000024744A0024744C001BB74B064810B578
:103260000068400506D5FFF7B2FD03494FF48060C2
:10327000091D086010BD0000644402582DE9F05F8C
:1032800004007DD0FF4F2078FE4D1837DFF8F4831F
:10329000103DC00748D0D8F80000396800F0380069
:1032A000102815D0182803D101F0030002280FD0F0
:1032B0006068B0F5803F12D010B1B0F5A02F18D0E3
:1032C000286820F480302860286820F4802009E0F5
:1032D0002868800328D560680028D2D024E02868B8
:1032E00040F480302860606888B1FEF783FE0646AF
:1032F00009E0286840F480202860F0E7FEF77AFEB5
:10330000801B64287ED828688003F7D50CE0FEF780
:1033100071FE064605E000BFFEF76CFE801B6428C8
:10332000F0D828688003F7D42078800756D5D8F8DD
:103330000000DFF85093396810F03800A9F10C094B
:103340000ED0182801D188070AD0E068A8B32968F0
:1033500021F0190101432960FEF74CFE064628E0E2
:103360002868400702D5E06800288AD0E16828680C
:1033700020F0190008432860FEF73CFE064606E0F0
:10338000D2E000BFFEF736FE801B0228BAD82868BC
:103390004007F7D5217CD9F8002022F0FE4242EA0E
:1033A0000161C9F8001019E0FEF724FE801B022815
:1033B000A8D828684007F7D5ECE7FFE7286820F091
:1033C00001002860FEF716FE064604E0FEF712FE36
:1033D000801B022896D828684007F7D42078C006BA
:1033E00046D5D8F80000DFF89C92396800F0380024
:1033F000A9F10409082812D0182805D101F003000A
:10340000012800E0CEE00AD0E0690028286820D03A
:1034100040F080002860FEF7EDFD064615E02868C4
:10342000C00502D5E06980287ED194F82010D9F833
:10343000002022F07C5242EA0161C9F8001017E036
:10344000FEF7D8FD801B0228A0D82868C005F7D554
:10345000EBE720F080002860FEF7CCFD064604E094
:10346000FEF7C8FD801B022890D82868C005F7D455
:103470002078000729D58348616964300029814696
:10348000016811D041F001010160FEF7B3FD06466D
:1034900005E000BFFEF7AEFD801B022888D8D9F8F2
:1034A00000008007F6D510E021F001010160FEF771
:1034B000A1FD064605E000BFFEF79CFD801B02282B
:1034C00070D8D9F800008007F6D42078800623D57C
:1034D000A0690028286810D040F480502860FEF7CA
:1034E00089FD064605E000BFFEF784FD801B02282B
:1034F00058D828688004F7D50EE020F48050286062
:10350000FEF778FD064604E0FEF774FD801B0228F6
:1035100048D828688004F7D42078400751D5DFF8D0
:103520006891D9F8001000E015E141F48071C9F804
:103530000010FEF75FFD064605E000BFFEF75AFDEE
:10354000801B64282ED8D9F80000C005F6D54D4E52
:10355000A068603601280AD008B1052813D0306869
:1035600020F001003060306820F0040002E0306894
:1035700040F001003060A06841F2883A98B1FEF74F
:1035800039FD81460AE0306840F004003060EEE723
:10359000FEF730FDA0EB0901514503D830688007E4
:1035A000F6D50EE072E0FEF725FD814606E000BF8D
:1035B000FEF720FDA0EB0901514567D83068800770
:1035C000F6D4606A00287CD0DFF8B8A0D8F80010E4
:1035D0000AF1200A4FF6F87B0AF10408C1F3C20190
:1035E0000329AAF104096DD00228286820F0807010
:1035F000286003D0FEF7FEFC044681E0FEF7FAFCEB
:10360000064604E0FEF7F6FC801B022875D8286801
:103610008001F7D4E26A40F2F331386854F8283F69
:10362000884340EA021018433860217B4FF4FE0CB7
:1036300022894FF0FE47208A4902267D521E401EF5
:10364000A1F5007189B2C2F308021143761E0CEA9B
:1036500000400143484607EA06621143CAF80010D9
:10366000D9F8001021F00101C9F80010D8F8003095
:10367000266A23EA0B0343EAC601C8F80010D9F80A
:10368000001004E0104402580048025835E0A269D6
:1036900021F00C011143C9F800100168E26921F022
:1036A000020111430160016841F480310160016849
:1036B00041F400310160016841F48021016001683A
:1036C00001E06CE020E041F001010160286840F079
:1036D00080702860FEF78EFC044604E0FEF78AFC4A
:1036E000001B022809D828688001F7D557E000BFE1
:1036F000FEF780FC001B022802D90320BDE8F09FE2
:1037000028688001F4D44AE039680128DAF800001A
:1037100021D0A26A01F0030393421CD1E26AC1F3F3
:1037200005118A4217D1216BC0F30802491E8A4253
:1037300011D1616BC0F34622491E91420BD1A16B9E
:10374000C0F30642491E914205D1E16BC0F3066009
:10375000491E814201D00120D0E7A16C4646D8F82D
:103760000000C0F3CC00814219D0D9F800004D46CA
:1037700020F00100C9F80000FEF73CFC4FEA00070A
:10378000FEF738FCB842FBD0A26C306820EA0B0090
:1037900040EAC2003060286840F001002860002044
:1037A000ACE700002DE9F047040029D0594A4FF05A
:1037B00000092068584B594D9042C4F8289006D013
:1037C000984204D0A84202D0E1680F2918D8E168D5
:1037D0004FF0010AE76B0831C9080AEB571671432D
:1037E000904205D0984203D0A84201D0082907D8BA
:1037F000904203D0984201D0A84204D1102902D9A6
:103800000120BDE8F08794F8810020B9204684F8B3
:10381000809000F085F8022084F88100206801681B
:1038200021F0010101602068A1698268B1F1806F17
:1038300002F4F81110D16268B2F5800F01D01AB10C
:103840000AE0A26B22B107E0A26BB2F1805F03D164
:10385000026842F4805202606068400209D5E06864
:10386000072806D32068236D026822F480721A4369
:1038700003E02068026822F480720260A66AE069B0
:10388000E26B25683043E3680A4310431843A8609D
:10389000D4E90D02D4E90581636A25691843D4F897
:1038A00020C00A43266810432843A56DD4E901725D
:1038B000D4E9123140EA080040EA0C0038430843DA
:1038C000104318432843F060606868B92068816835
:1038D00021F4C05141F4006181602068816821F4C5
:1038E000C06141F4806181602068016D21F00101B7
:1038F00001656068400206D52068626DC16821F0EC
:1039000000411143C160C4F8849084F881A0002074
:1039100077E700000030014000380040003C0040E4
:1039200070B5B4B0044614212EA8FCF79BFDB82155
:103930006846FCF797FD2149206888423CD18114F4
:10394000002017900446CDE900106846FEF7A2FD5E
:1039500008B1FCF71FFF1A48016841F4805101606B
:10396000006800F48050339015481038016841F029
:1039700008010160016801F008013391016841F01C
:103980000201016000680526022500F00200339064
:1039900080202E90CDE92F540A482EA9CDE931463A
:1039A000FEF70CFA08202E90CDE92F5406482EA9D8
:1039B000CDE93146FEF702FA34B070BD0030014067
:1039C000F0440258000C0258000402582DE9F84F48
:1039D000044600689946174600F1200B8A46FEF718
:1039E00009FB064694F88100012839D1BAF1000F8D
:1039F0007ED0002FFCD094F88000012830D0A2683F
:103A000000254FF0010884F88080032184F881109C
:103A1000C4F88450C4F85CA06566A4F86850656773
:103A200025672C34B2F5C02FA786E786E58754F8C2
:103A30002C0D18D0C16821F4C02141F40031C160BF
:103A4000206841686FF30F013943416020680168C5
:103A500041F0010101606068B0F5800F08D00CE012
:103A60000220BDE8F88F016841F400610160E7E7DA
:103A70002068016841F400710160E0680F281CD8DB
:103A800020E02068416989070BD5E16D0968016272
:103A9000E06D001DE065B4F86200401EA4F862000D
:103AA0000BE0FEF7A7FA811B494503D3B9F1FF3FAD
:103AB00003D09DE0B9F1000F32D0B4F862000028C5
:103AC000DFD179E007282FD872E0206841698907A3
:103AD0001ED5B4F8621001290DD9E16B59B1E16D21
:103AE00009680162E06D001DE065B4F8620000E065
:103AF0007CE0801E09E0E06D0188ABF80010E06D0D
:103B0000801CE065B4F86200401EA4F862000BE07F
:103B1000FEF770FA811B494503D3B9F1FF3F03D08B
:103B200066E0B9F1000F63D0B4F862000028CCD190
:103B300042E02068416989072ED5B4F86210032954
:103B40000CD9E16B402909D9E16D09680162E06D8A
:103B5000001DE065B4F86200001F1AE0B4F86210BE
:103B600001290CD9E16B51B1E06D0188ABF800106F
:103B7000E06D801CE065B4F86200801E09E0E16D34
:103B8000097880F82010E06D401CE065B4F8620010
:103B9000401EA4F862000BE0FEF72CFA811B494599
:103BA00003D3B9F1FF3F03D022E0B9F1000F1FD0DA
:103BB000B4F862000028BCD100224B460821204600
:103BC000009602F079FA28B1D4F8840040F0200081
:103BD000C4F88400204602F011FA84F88180D4F8F9
:103BE000840084F8805000283FF43BAF012038E780
:103BF000204602F003FAD4F8841084F8805041F48F
:103C00008071C4F8841084F88180032029E770470C
:103C100070477047F0B590F83C20012A41D0224E01
:103C2000012480F83C40022280F83D2002681F4DAC
:103C30005368B242D2F808C001D0AA4203D14F68FB
:103C400023F470033B430F6823F070031F43576056
:103C50000268B24219D0B2F1804F16D0144B9A428A
:103C600013D0144B9A4210D0134B9A420DD0AA4253
:103C70000BD0124B9A4208D0114B9A4205D0114BEF
:103C80009A4202D0104B9A4204D189682CF08003EA
:103C900019439160002180F83D4080F83C100846AF
:103CA000F0BD0220F0BD0000000001400004014012
:103CB0000004004000080040000C004000180040D4
:103CC0000040014000E0004000E4004010B5040066
:103CD00003D094F83D0010B107E0012010BD002092
:103CE00084F83C00204600F023F8022084F83D00D0
:103CF0002068211D02F056FD012084F8480084F858
:103D00003E0084F83F0084F8400084F8410084F8C5
:103D1000420084F8430084F8440084F8450084F8A5
:103D2000460084F8470084F83D00002010BD0000E4
:103D300008B5114A01681148914211D1016841F05A
:103D40001001016000680022052100F010000090C1
:103D50003620FEF7EDF9BDE808403620FEF7DAB967
:103D6000074A914207D1016841F0400101600068B3
:103D700000F04000009008BD00100040E8440258E8
:103D80000018004090F83D10012901D00120704733
:103D90001A4A022180F83D100168CB6843F0010304
:103DA000CB60006890421AD0B0F1804F17D0144910
:103DB000884214D01349884211D0134988420ED04A
:103DC000124988420BD01249884208D011498842D2
:103DD00005D01149884202D01049884207D1816834
:103DE0000F4A1140062906D0B1F5803F03D0016883
:103DF00041F0010101600020704700000000014017
:103E00000004004000080040000C00400004014095
:103E1000001800400040014000E0004000E4004085
:103E20000700010070B5044690F83C000025012809
:103E300014D03A4B012684F83C60022084F83D00FF
:103E400022689068184020F47F40906008687028CD
:103E50002FD010DC10F00F0F03D022E04FF0020043
:103E600070BD4FEA2012072A1BD2DFE802F053533D
:103E700053534B394100B0F1101F4BD009DCB0F562
:103E8000805F0FD0B0F5005F1ED0B0F5801F08D165
:103E900040E0A0F5801120393CD010293AD02029EB
:103EA00038D0012584F83D60002084F83C00284685
:103EB00070BD4A682068D1E9021302F0E3FC206873
:103EC000816841F0770109E04A682068D1E902136E
:103ED00002F0D8FC2068816841F480418160E1E70C
:103EE000CA684968206802F083FE2068502106E015
:103EF000CA684968206802F0A9FE2068602102F0C3
:103F0000CBFCCFE7CA684968206802F071FE2068E0
:103F10004021F4E7226801461046F0E788FFCEFF13
:103F200070472DE9F041044600680027C66805691E
:103F3000A90713D5B10711D5FA1E02610121217716
:103F4000206880698007204602D0FFF7E9FF04E07F
:103F500000F0B4F8204600F076F92777680716D508
:103F6000700714D5226802206FF0040111612077D8
:103F70002068806910F4407F204602D0FFF7D0FF10
:103F800004E000F09BF8204600F05DF92777280751
:103F900015D5300713D5226804206FF00801116190
:103FA00020772068C0698007204602D0FFF7B8FF5D
:103FB00004E000F083F8204600F045F92777E80692
:103FC00016D5F00614D5226808206FF01001116193
:103FD00020772068C06910F4407F204602D0FFF7A8
:103FE0009FFF04E000F06AF8204600F02CF92777E4
:103FF000E80708D0F00706D021686FF001000861DB
:10400000204600F021F9280601D4A80408D530067E
:1040100006D521686FF4025008612046FFF7F8FDCD
:10402000E80508D5300606D521686FF48070086170
:104030002046FFF7ECFD680608D5700606D5216816
:104040006FF040000861204600F01AF9A8060AD572
:10405000B00608D521686FF0200008612046BDE851
:10406000F041FFF7D6BDBDE8F081000010B586B085
:10407000044614216846FCF7F5F90D49206888428A
:1040800014D10C48016841F0020101600068002170
:1040900000F002000590022082030092CDE90101A8
:1040A000CDE9031004486946FDF788FE06B010BD4F
:1040B00000180040E044025800040258704770B5F0
:1040C000044690F83C0000260D4601280BD0012044
:1040D00084F83C000C2A4AD007DC82B1042A20D0A4
:1040E000082A06D131E0022070BD102A53D0142ACC
:1040F00063D00126002084F83C00304670BD206863
:1041000002F0D4FB2068816941F0080181612068D8
:10411000816921F00401816120682A698169114364
:1041200011E0206802F018FC2068816941F4006108
:1041300081612068816921F4806181612068296939
:10414000826942EA01218161D4E7206802F052FCD1
:104150002068C16941F00801C1612068C16921F08E
:104160000401C16120682A69C169114311E0206816
:1041700002F08EFC2068C16941F40061C1612068D1
:10418000C16921F48061C16120682969C26942EA7C
:104190000121C161AEE7206802F0B6FC2068416DE4
:1041A00041F0080141652068416D21F0040141653D
:1041B00020682A69416D114311E0206802F0DEFC9D
:1041C0002068416D41F4006141652068416D21F432
:1041D0008061416520682969426D42EA012141659B
:1041E00088E710B5040003D094F83D0010B107E053
:1041F000012010BD002084F83C00204600F022F889
:10420000022084F83D002068211D02F0CBFA012035
:1042100084F8480084F83E0084F83F0084F84000A9
:1042200084F8410084F8420084F8430084F8440094
:1042300084F8450084F8460084F8470084F83D007F
:10424000002010BD7047704710B50A490446006849
:10425000884201D1FDF7D4FE07492068884207D182
:1042600006480178491C0170BDE8104001F09ABA77
:1042700010BD00000000014000100040A20000241A
:10428000704730B590F88410012918D0012280F8C9
:1042900084202421C0F888100022202401680B68A3
:1042A0000D6823F0005325F001050D60426601689A
:1042B0000B60C0F8884080F88420104630BD022092
:1042C00030BD70B50446D0F88C000025202801D000
:1042D000022070BD69B162B10123E366002020674E
:1042E000204603F05FFAE06E012804D0012528463D
:1042F00070BD012070BD216810200862216851E85E
:10430000000F40F0100041E80002002AF6D1EEE76D
:1043100010B500680B4A904213D10B4C122909D0FA
:104320006068401C6060BDE81040084912220848DF
:10433000FFF7C7BF054801F02DFE2068401C206034
:10434000F1E710BD005000408C010024064F00240E
:10435000E8030024704770B5044690F884000128F3
:104360001DD0012284F884202420C4F8880020680D
:104370000568026822F0010202602068826822F06B
:1043800060620A438260204602F0ACFC2268202171
:1043900000201560C4F8881084F8840070BD0220E5
:1043A00070BD70B5044690F8840001281DD001222C
:1043B00084F884202420C4F88800206805680268F6
:1043C00022F0010202602068826822F060420A4303
:1043D0008260204602F086FC2268202100201560C1
:1043E000C4F8881084F8840070BD022070BD704746
:1043F0007047000000680649884208D10548816876
:10440000491C8160044912220448FFF75ABF7047D3
:10441000005000408C010024064F0024E8030024D3
:104420002DE9F04107680025044640F60F030226F7
:10443000F8693968BA6818420AD183067ED501F056
:10444000200302F0805C53EA0C0377D0616F7EE1B9
:10445000D44BDFF854C3134001EA0C0C53EA0C0CA4
:104460006CD05FEAC07C0CD05FEAC15C09D54FF02C
:10447000010CC7F820C0D4F8907047F00107C4F8C9
:104480009070870709D5D70707D027683E62D4F810
:10449000906046F00406C4F8906046070AD5D60737
:1044A00008D0276804263E62D4F8906046F00206E1
:1044B000C4F8906006070CD501F020061E4308D012
:1044C000266808233362D4F8903043F00803C4F818
:1044D000903003050BD54B0109D526684FF40063D6
:1044E0003362D4F8903043F02003C4F89030D4F80D
:1044F0009030002B3DD0800609D501F0200002F05D
:104500008051084303D0616F09B120468847216874
:10451000D4F890008968490602D410F0280F2AD0F8
:10452000204602F0BFFC2068806840061ED5206847
:10453000083050E8001F21F0400100E021E040E891
:104540000012002AF3D1D4F8800078B197490165B0
:10455000D4F88000FCF786FC00280AD0D4F880004C
:10456000016D00E02046BDE8F04108472046FFF716
:1045700041FFBDE8F0812046FFF73CFFC4F89050B2
:10458000F7E7D4F86CC02023BCF1010F7ED15FEABD
:10459000C06C7BD55FEAC16C78D51020386220688A
:1045A0008068400673D5D4F880208149106888421D
:1045B00034D07F491831884230D07D49303188422B
:1045C0002CD07B494831884228D0794960318842D3
:1045D00024D077497831884220D07549903188427B
:1045E0001CD07349A831884218D07249884215D02E
:1045F00070491831884211D06E49303188420DD04F
:104600006C494831884209D06A496031884205D0F6
:1046100068497831884201D06649903140684FF44A
:1046200080770004000C40D0B4F85C1081423CD983
:10463000A4F85E00D069B8422FD0216851E8000F7D
:1046400020F4807041E80002002AF6D1206808308A
:1046500050E8001F21F0010140E80012002AF5D1C6
:104660002068083050E8001F21F0400140E80012A7
:10467000002AF5D1C4F88C30E566206850E8001FA8
:1046800021F0100140E80012002A01E04AE019E0A0
:10469000F3D1D4F88000FCF735FA2667B4F85C0053
:1046A000B4F85E10401A81B208E0B4F85C108142A0
:1046B0007FF466AFD069B842FAD126672046FFF78B
:1046C00027FE56E7B4F85C00B4F85E10B4F85E203C
:1046D000401A81B2002AF4D00029F2D0226852E8B0
:1046E000000F20F4907042E80007002FF6D1324FFF
:1046F000206800F1080050E8002F02EA070240E8B5
:10470000002CBCF1000FF3D1C4F88C30E56665676E
:10471000226852E8000F20F0100042E80003002B4E
:10472000F6D1CAE7C60209D5560207D54FF4801064
:1047300038622046BDE8F041FFF75ABE06060AD5AA
:1047400001F0800602F40002164304D0A16F002994
:104750007FF408AF0DE7420611D54A060FD5204673
:10476000016851E8002F22F0400241E80024002CAB
:10477000F6D1C0F88830856700F046F9F9E6020204
:1047800006D54A0004D52046BDE8F041FFF72FBE0C
:10479000C00196D5002994DA2046BDE8F041FFF724
:1047A000D9BD000001000010200100049B6E00082C
:1047B0001000024010040240FEFFFFEF10B504009D
:1047C00003D0D4F8880010B107E0012010BD00200C
:1047D00084F88400204600F027F82420C4F88800DC
:1047E0002068016821F001010160A06A10B1204633
:1047F00002F09AFA204602F0E7FD0128E6D0206890
:10480000416821F4904141602068816821F02A01CB
:1048100081602068016841F0010101602046BDE827
:10482000104002F0E5BA000070B5B4B0044614219F
:104830002EA8FBF717FEB8216846FBF713FE3D498B
:104840000226206800243C4D884245D100201D945A
:104850000221CDE900106846FDF71CFE08B1FBF708
:1048600099FF35480830016841F480110160006803
:1048700000F480103390286840F002002860286817
:1048800000F002003390286840F008002860286893
:104890000E2100F0080033904FF400502E90CDE927
:1048A0002F64CDE9314125482EA9FDF787FA08216B
:1048B00004202E90CDE92F64CDE9314120482EA966
:1048C000FDF77CFA002205213520FDF731FC35206B
:1048D000FDF720FC34B070BD1A498842FAD100209F
:1048E0001E940121CDE900106846FDF7D3FD08B103
:1048F000FBF750FF10481030016841F010010160D3
:10490000006800F010003390286840F00100286033
:104910002868072100F0010033904FF4C0602E900A
:10492000CDE92F64CDE9314107482EA9FDF746FABC
:10493000D0E7000000500040E04402580004025854
:10494000000C02580010014000000258704700009F
:104950002DE9F84F0446D0F88800984615460E46D3
:10496000202802D00220BDE8F88F96B38DB3002135
:104970004FF02109C4F89010C4F888901834FDF75E
:1049800039FB824654F8100CA587E587183CB0F532
:10499000805F01D1206910B13546002600E0002576
:1049A0005FF02007B4F8560053464FF00002CDF8F0
:1049B0000080E0B18021204602F07CFFE0B955B1D3
:1049C00015F8010B21688862D4F8881039EA0100D3
:1049D00007D00120C7E736F8020B2168C0F30800B2
:1049E000F1E7B4F85600401EA4F85600DAE740217B
:1049F000204602F05FFF18B1C4F888700320B2E7C8
:104A0000C4F888700020AEE77047FEE710B54FF09D
:104A10000004EFF3058048B905F056FA012806D0E6
:104A2000EFF3108010B9EFF3118000B1012420469C
:104A300010BD2DE9F0411E4614460F4605462A20BA
:104A400000F06AFC1435A8B200F05BFC1434A0B28C
:104A500000F057FC2B2000F05FFC384600F051FCC2
:104A6000304600F04EFCBDE8F0412C2000F054BC74
:104A70002DE9FE43022003F081FB18254FF6FF7756
:104A800000241B4A64213B460A200294CDE90045DC
:104A900000F0B8F9174E18A1301D328803F07AF8EB
:104AA0004FF607480294321D43466421B420CDE9F5
:104AB000004500F009FC0E4A96210A203B460D32C3
:104AC0000294CDE9004500F09DF972880AA106F133
:104AD0000A0003F05FF896214346B4200294CDE922
:104AE000004506F10A0200F0EFFBBDE8FE8300007E
:104AF00080F70008CC0000242564000010B514469F
:104B00000B460246FFF795FF2046BDE8104000F037
:104B1000F8BB2DE9F0470C468046581E1F46511E33
:104B2000164683B2DDF820908AB221464046FFF750
:104B300080FF0AE0454604E0484600F0E2FB6D1CB9
:104B4000ADB2B542F8D3641CA4B2BC42F2D3BDE806
:104B5000F087000070B5674D4FF4006400222146D5
:104B60002846FDF742FA6420FCF78AFA0122214622
:104B70002846FDF73AFA6420FCF782FA012228461B
:104B80009102FDF732FA6420FCF77AFA112000F066
:104B9000C3FB7820FCF774FA362000F0BDFB7020D0
:104BA00000F0D0FB3A2000F0B7FB052000F0CAFB74
:104BB000B22000F0B1FB0C2000F0C4FB0C2000F090
:104BC000C1FB002000F0BEFB332000F0BBFB332014
:104BD00000F0B8FBB72000F09FFB352000F0B2FBDF
:104BE000BB2000F099FB322000F0ACFBC22000F0AB
:104BF00093FB012000F0A6FBC32000F08DFB1520E5
:104C000000F0A0FBC42000F087FB202000F09AFBFE
:104C1000C62000F081FB0F2000F094FBD02000F0B4
:104C20007BFBA42000F08EFBA12000F08BFBE0209A
:104C300000F072FBD02000F085FB082000F082FB22
:104C40000E2000F07FFB092000F07CFB092000F023
:104C500079FB052000F076FB312000F073FB332058
:104C600000F070FB482000F06DFB172000F06AFB9D
:104C7000142000F067FB152000F064FB312000F0E9
:104C800061FB342000F05EFBE12000F045FBD0200A
:104C900000F058FB082000F055FB0E2000F052FBFE
:104CA000092000F04FFB092000F04CFB152000F01C
:104CB00049FB312000F046FB332000F043FB482045
:104CC00000F040FB172000F03DFB142000F03AFB01
:104CD000152000F037FB312000F034FB342000F0C9
:104CE00031FB212000F018FBBDE87040292000F0C6
:104CF00013BB0000000402582DE9FF4F81B00446A9
:104D00004FF00008DDF83C9000904FEA5907780713
:104D100000D0012000EBD700203A00FB09FBD0B205
:104D200003900298E119491E4844401E83B2204670
:104D30008AB20299FFF77DFE002553E0B9F10C0F0E
:104D40002AD0B9F1100F2ED0B9F1180F2ED0B9F129
:104D5000200F49D10398274901EB8010002610F855
:104D600005A0109800284FF0010000FA06F000EAB4
:104D70000A0022D020B1049A20460299FFF7BEFE15
:104D80000098641CA4B2201AB84225D10298009C55
:104D9000401C80B2029023E00398174900EB4000CA
:104DA00001EB8000DAE71549039803E00398144902
:104DB00000EB400001EB0010D0E708B1049800E0E0
:104DC0000E9800F09EFA08F10100C0B2B0FBF7F1B6
:104DD000804607FB118050B1761CF6B2082EC0D376
:104DE0006D1CADB25D45A9D305B0BDE8F08F4FF0A5
:104DF0000008F5E728C00008F4A3000868A8000828
:104E000058AE00082DE9FE4F994615468A460746DA
:104E1000DDF83080DDE90D4614E00C2C17D0102CA5
:104E200020D0182C29D0202C0FD1CDF800804B4653
:104E3000CDE901462A465146384600F0A1F9381915
:104E400087B2AD1C28780028E7D1BDE8FE8FCDF8E9
:104E500000804B46CDE901462A465146384600F0CF
:104E600017F8ECE7CDF800804B46CDE901462A461D
:104E70005146384600F08AF8E1E7CDF800804B460D
:104E8000CDE901462A465146384600F0FBF8D6E700
:104E90002DE9FF4F83B080464FF00009119D00902F
:104EA000690701D0012000E0002000EBD5000421BB
:104EB000029100FB05FB00260599334806EB8603AB
:104EC0000A7803EBC60110F81130934251D1059ACC
:104ED00000EB4100527801904078904249D104980B
:104EE000411908EB0500401E82B24046491E8BB2B4
:104EF0000499FFF79EFD002739E00198002400EB9C
:104F0000070A129800284FF001009AF8021000FAE0
:104F100004F001EA000115D021B1069A4046049937
:104F2000FFF7ECFD009908F101001FFA80F8A8EBEB
:104F30000100A84215D10499DDF80080491C88B20F
:104F4000049012E009B1069800E0109800F0D9F939
:104F500009F10100C0B2B0FBF5F1814605FB1190EB
:104F600078B1641CE4B2082CCBD37F1CFFB25F4540
:104F7000C3D30298761CB6B286429DD307B0BDE873
:104F8000F08F4FF00009F0E7E8D700082DE9FF4F58
:104F900083B080464FF00009119D0090690701D051
:104FA000012000E0002000EBD5000421029100FB6D
:104FB00005FB00263248059A06EB0611127810F818
:104FC0001130934250D1059A00EB41005278019084
:104FD0004078904248D1049808EB0501491E2844C6
:104FE000401E83B240468AB20499FFF722FD002793
:104FF00038E00198002400EB070A129800284FF0CF
:1050000001009AF8021000FA04F001EA000114D03D
:1050100021B1069A40460499FFF770FD009908F106
:1050200001001FFA80F8A8EB0100A84214D10498EF
:105030008846401C80B2049012E009B1069800E056
:10504000109800F05EF909F10100C0B2B0FBF5F173
:10505000814605FB119078B1641CE4B2082CCCD3D6
:105060007F1CFFB25F45C4D30298761CB6B286425D
:10507000A0D307B0BDE8F08F4FF00009F0E70000C3
:1050800050D800082DE9FF4F83B080464FF000094B
:10509000119D0090690701D0012000E0002000EB85
:1050A000D5000821029100FB05FB00260599334835
:1050B00006EB86030A7803EB461110F81130934291
:1050C00051D1059A00EB410052780190407890420E
:1050D00049D10498411908EB0500401E82B24046B0
:1050E000491E8BB20499FFF7A4FC002739E0019810
:1050F000002400EB070A129800284FF001009AF8EC
:10510000021000FA04F001EA000115D021B1069A5C
:1051100040460499FFF7F2FC009908F101001FFADC
:1051200080F8A8EB0100A84215D10499DDF80080B1
:10513000491C88B2049012E009B1069800E010986A
:1051400000F0DFF809F10100C0B2B0FBF5F18146D3
:1051500005FB119078B1641CE4B2082CCBD37F1C02
:10516000FFB25F45C3D30298761CB6B286429DD388
:1051700007B0BDE8F08F4FF00009F0E7D8D800087D
:105180002DE9FF4F83B080464FF00009119D00903C
:10519000690701D0012000E0002000EBD5000121CB
:1051A000029100FB05FB00263248059A06EB8611AA
:1051B000127810F81130934250D1059A00EB41005B
:1051C000527801904078904248D1049808EB05014C
:1051D000491E2844401E83B240468AB20499FFF714
:1051E00028FC002738E00198002400EB070A1298F9
:1051F00000284FF001009AF8021000FA04F001EACA
:10520000000114D021B1069A40460499FFF776FCBC
:10521000009908F101001FFA80F8A8EB0100A842EC
:1052200014D104988846401C80B2049012E009B161
:10523000069800E0109800F064F809F10100C0B28F
:10524000B0FBF5F1814605FB119078B1641CE4B226
:10525000082CCCD37F1CFFB25F45C4D30298761CC8
:10526000B6B28642A0D307B0BDE8F08F4FF0000978
:10527000F0E70000180000242DE9F0471F46904693
:10528000CB1900EB0802DDF820905B1E521E9BB28A
:1052900092B20025FFF7CDFB002611E000240BE0C1
:1052A00019F8150000F04EF809EB4500407800F0C1
:1052B00049F8641CA4B26D1CBC42F1D3761CB6B292
:1052C0004645EBD3BDE8F0872DE9FE4F99461446DD
:1052D0008A460546DDE90D67DDF830800CE0CDF843
:1052E00000804B46CDE9016751462846FFF704FD93
:1052F00005EB560085B2641C2278002AEFD1BDE888
:10530000FE8F10B50446000A00F01CF8E0B2BDE8BC
:10531000104000F017B8000070B5094D4FF48064DC
:105320000022064621462846FCF75FFE304600F084
:1053300009F821462846BDE870400122FCF755BE19
:10534000000C025831B50A4D4FF4004400222146AA
:105350002846FCF74AFE074801224FF6FF736946CC
:10536000FEF734FB012221462846FCF73EFE38BDFD
:1053700000100258C80200242DE9F041184800220C
:10538000164D042100F11408012682600F270560E4
:105390000D25C260022402740A234274827488E8D4
:1053A000C200C0E90A450463C0E90816C0E90D213E
:1053B000C0E90F13C0E91113C0E91314C0E91513B4
:1053C000C3650366C0E91921FCF7D4F9002803D0AE
:1053D000BDE8F041FBF7DEB9BDE8F08100A0004078
:1053E000280200241B4810B502F0ECFF1A4C0821DB
:1053F000184A183A6062102002F04EFF154A002148
:1054000020621648F03A03F031F8124A0021A060F9
:105410001348CC3A03F02AF80E4A0021E060114804
:10542000A83A03F023F80B4A002120610E48843A81
:1054300003F01CF8074A002160610C48603A03F051
:1054400015F8044A0021A06109483C3A03F00EF81F
:10545000E06110BD70F70008A4000024616100083D
:10546000F96100088563000849640008C564000804
:10547000896500082DE9F04F87B014216846FAF7D6
:10548000F1FF3948016841F080010160016801F0D5
:1054900080010591016841F001010160016801F09E
:1054A00001010591016841F010010160016801F0FE
:1054B00010010591016841F002010160016801F0ED
:1054C00002010591016841F00801016000684FF494
:1054D0000047DFF898A0002200F008003946059048
:1054E0005046FCF782FDDFF888B04FF44068002298
:1054F00041465846FCF779FD4FF480691D4800226B
:105500004946FCF772FD012420204FF404118DE878
:10551000130019486946FCF751FC01AA00970025C1
:1055200069460226504682E87000FCF747FC01AA53
:10553000CDF800806946584682E87000FCF73EFCD2
:1055400001AACDF800900B48694682E87000FCF78C
:1055500035FC002206211720FCF7EAFD1720FCF796
:10556000D9FD07B0BDE8F08FE044025800100258A2
:1055700000040258000C0258000002582DE9F041C6
:105580004FF480051448134A07276E114FF0007C32
:105590002C0180E8E4100021E300C0E90514C0E913
:1055A000073141625A008162C162C0E90D21C163C5
:1055B000016441648164C164016541658165FEF7F0
:1055C000F1F8002803D0BDE8F041FBF7E3B8BDE8EF
:1055D000F081000000300140C802002430B58FB0D7
:1055E00000241C21009407A80194029403940494BD
:1055F00005940694FAF736FF204840F2E73240F26D
:1056000026231D4D8021C0E9024204618161C0E969
:105610000053FEF75BFB08B1FBF7BCF84FF480507A
:10562000009016486946FEF7FDFB08B1FBF7B2F89B
:105630001248FEF7D6FD08B1FBF7ACF80F4804A9F5
:1056400004940694FEF7E6FA08B1FBF7A3F807AA5C
:1056500040F2F311602082E813000848042207A9F1
:105660000B94FEF72CFD08B1FBF794F80348FEF706
:10567000FDFC0FB030BD0000001800409C0300246A
:105680003EB51148002441F287320E4D7723009435
:105690000194802102948161C0E90242C0E9005373
:1056A000FEF714FB08B1FBF775F80748694600944C
:1056B0000294FEF7AFFA08B1FBF76CF80248FEF768
:1056C00061FB3EBD001000405003002470B5184837
:1056D0000021164C0C2300F10C0C164D22158CE801
:1056E0000E008161A614C16101624162816280E89D
:1056F0007000FFF763F808B1FBF74CF80C48002185
:10570000FEF74FFE08B1FBF745F809480021FEF708
:1057100022FE08B1FBF73EF80548FEF7B2FD00286F
:1057200003D0BDE87040FBF735B870BD00500040B5
:10573000E8030024A08601001848002110B5164C8B
:105740000C224FF4E1330460C0E90131C160C0E9CB
:1057500004128161C161016241628162FFF72EF82A
:1057600008B1FBF717F80D480021FEF71AFE08B143
:10577000FBF710F809480021FEF7EDFD08B1FBF733
:1057800009F80648FEF77DFD002803D0BDE810406B
:10579000FBF700B810BD0000001001407C0400249D
:1057A000FEE7000070B55D4D2DED048BB5F90220CC
:1057B00029885B4800F088F95A4EB6F902203188F2
:1057C0005748183000F080F9574C2078DFED578AA1
:1057D000E8B35348B0EE681A94ED020AD0ED000A1F
:1057E000503000F0AFF94E48F0EE400A1830B0EEFD
:1057F000608AD0ED000A7830B0EE681A94ED020AA3
:1058000000F0A0F99FED4A1ADFED4A1AB3EE032A21
:1058100068EE010A20EE011AB5F9020080EEA10A35
:10582000C1EE210A20EE020A20EE829A00EE900AD2
:105830003B48B0EE681A3030F8EEE00A00F082F92A
:10584000B6F90200B0EE408A00EE100A00E017E060
:10585000F8EEC00AB0EE681AB0EE490A304870306F
:1058600000F070F918EE100A344A4FF08D41DFED68
:10587000320A9FED331A88422BDDB0EE608A2EE0AB
:10588000B5F90200E16800EE900A254801EB4102FB
:1058900002EB011100EE101A3030F8EEE00AB8EE1B
:1058A000C00AB0EE681A00F04DF9B6F9020021699D
:1058B000B0EE408A00EE900A01EB410202EB0111CA
:1058C00000EE101AF8EEE00AB0EE681AB8EEC00A60
:1058D000C4E718EE100A904201D9B0EE418A10EEEA
:1058E000100A884202DDB0EE600A05E010EE100AF0
:1058F000904201D9B0EE410A84ED058AFDEEC00A5E
:1059000084ED060ABDEEC80A10EE901ABDEC048BB9
:1059100010EE100ABDE8704000F08AB89A0000242A
:105920004C4E00249E000024700100240AD7A33BA3
:1059300000007042DB0FC94000008046000080C6B6
:10594000000080C610B53548B2EE040A2DED048B78
:10595000DFED308A9FED308AB0EE681AF0EE480A2B
:1059600000F03FF99FED2E9ADFED2E9A2B48F0EED6
:10597000490AB0EE690A00F02FF9284800F020F932
:105980002648B0EE681A4030F0EE480AB2EE040A3B
:1059900000F027F92148F0EE490A4030B0EE690ADC
:1059A00000F01AF91D48403000F00AF91B48B0EE2B
:1059B000481A2030F0EE480AB1EE040A00F011F95E
:1059C000DFED198A9FED199A1448F0EE680A20302D
:1059D000B0EE490A00F000F91048203000F0F0F86D
:1059E0000E48B0EE481A6030F0EE480AB1EE040AF4
:1059F00000F0F7F80948F0EE680A6030B0EE490AA6
:105A000000F0EAF8BDEC048B0448BDE810406030BB
:105A100000F0D6B8A69BC43A000000007C4E0024DB
:105A2000000080C600008046000048C300004843D4
:105A300070B58CB00C462421054601A8FAF712FD7A
:105A4000290A8DF828108DF829500022200A8DF897
:105A50002A0008268DF82B404FF400730B92CDE9F5
:105A60000132CDE90326054801A907920592069265
:105A700008920AAAFBF75AFB0CB070BD280200245A
:105A8000094910B50870094800F09AF807484030F5
:105A900000F096F80548203000F092F80348BDE881
:105AA0001040603000F08CB8700100247C4E00245F
:105AB0000149C86070470000700100240149086175
:105AC000704700007001002410B5838ACC1A036966
:105AD00024B214F5805F01DA5B1C03E0B4F5805F4B
